:10020000200603A90085001820E102C90FD00520AF
:100210008A0290EFC90ED006204B021890EA8501A1
:10022000207302A500C9FFD005208A0290DA4AA8EF
:10023000A501B009290F995003E60090CB0A0A0ADC
:100240000A195003995003E60090BDA2008602A54A
:10025000024AAABD5003B004290F900629F04A4A69
:100260004A4A207302A220209F02E602A502C5008E
:1002700090DF60C90DD006A254209F0260AABDD4B1
:10028000028504BDC70220AB0260A9FF8504A94B0B
:1002900020AB02A93820AB02A94B20AB021860A00A
:1002A000FFEAD00088D0FACAD0F5608503A9FF8D97
:1002B00002CCA900A604A40388189000D0FA49FF34
:1002C0008D00CCCAD0F060FEE2C9BEA9968E867EB3
:1002D0007770645E55606B72808F94A1AAB5BFD7AA
:1002E000E42C01CC10FBA20F8E00CC2C01CC10050D
:1002F000CA10F530F18AA012A2FF2C01CC30E7CA57
:10030000D0F888D0F360A9008D03CCA9FF8D02CC72
:01031000608C
:00000001FF
